:100000000C94B4000C94DE000C94DE000C94DE0022
:100010000C94DE000C94DE000C94DE000C94DE00E8
:100020000C94DE000C94DE000C94DE000C94DE00D8
:100030000C9422030C94DE000C94DE000C94DE0081
:100040000C94E2080C94DE000C94FE050C9434062B
:100050000C94DE000C94DE000C94DE000C94DE00A8
:100060000C94DE000C94DE000C9450030C94DE0023
:100070000C94DE000C94DE000C94DE000C94DE0088
:100080000C94DE000C94DE000C94DE00D609D60938
:10009000E709C809CB09CF09D209E709E709DA0955
:1000A000DE09E2090000000A0B0C0000000000005D
:1000B0000104050600000000000000000000000030
:1000C0000000000000000000000000000000000030
:1000D00000000000000000000001020408102040A1
:1000E000800102040810204080081001020408105A
:1000F000204080010201020408102040800480405A
:1001000020100804020101020408102040800505A7
:1001100005050505050502020202020202020707A3
:10012000040404040404040407070303030303038F
:10013000030307010101010101010106060606068C
:1001400006060600003B003800350032002300623E
:1001500000650000003A00370034003100220061E1
:10016000006400007F01680611241FBECFEFD0E1BC
:10017000DEBFCDBF11E0A0E0B1E0E0E5FAE100E0D4
:100180000BBF02C007900D92A037B107D9F722E04C
:10019000A0E7B1E001C01D92A938B207E1F710E075
:1001A000C4EBD0E004C02197FE010E94B10AC23B1B
:1001B000D107C9F70E94D3080C94260D0C940000B7
:1001C0006AE570E082E891E00E9466046AE570E00A
:1001D00085E891E00E9466046AE570E088E891E0B5
:1001E0000E94660460E670E08BE891E00E9466047D
:1001F0006EE670E08EE891E00E94660464E470E0D0
:1002000081E991E00C9466049B016D7FA901440F84
:10021000551F672B49F02430310531F0B901685082
:1002200071096330710540F4FA01EA5FFE4F6081A5
:100230007181680F791F07C0FA01EA5FFE4F608184
:100240007181681B790BCA01820F931F80599E4FE1
:100250000C94660464E170E080E791E00E942A0457
:1002600065E170E083E791E00E942A0466E170E0B6
:1002700086E791E00E942A0469E170E089E791E055
:100280000E942A0468E170E08CE791E00E942A0451
:1002900067E170E08FE791E00E942A046CE170E072
:1002A00082E891E00E942A046DE170E085E891E027
:1002B0000E942A046EE170E088E891E00E942A041E
:1002C0006AE170E08BE891E00E942A0462E170E04C
:1002D0008EE891E00E942A0463E170E081E991E0F8
:1002E0000C942A0426E040E052EC61E070E08FEDCF
:1002F00091E00E9499050E942A010C94E000CF939E
:10030000DF93C0E7D1E0CE010E947E03239681E017
:10031000C439D807C1F7DF91CF9108958F929F928A
:10032000AF92BF92CF92DF92EF92FF920F931F9303
:10033000CF93DF9300D000D000D0CDB7DEB762E618
:1003400071E0CE0101960E945A0810E08FED91E015
:100350000E94C204892B59F08FED91E00E94DC04C9
:10036000682FCE0101960E94B40811E0EFCF11234F
:1003700009F482C06EE171E08FED91E00E94E20627
:10038000BE016F5F7F4F8FED91E00E94EF06CE01BF
:1003900001960E94C7084B015C012AE030E040E072
:1003A00050E00E94920A97FF07C090958095709543
:1003B00061957F4F8F4F9F4F8B019AE0C92ED12CB3
:1003C000E12CF12CC501B401A70196010E94920A0B
:1003D000CA01B901A70196010E94920A6B017C0132
:1003E00097FF08C0F094E094D094C094C11CD11C35
:1003F000E11CF11CC501B40124E630E040E050E00E
:100400000E94920A49015A01B601660F771F6C0DCE
:100410007D1D600F711FC9010E94040168E271E037
:100420008FED91E00E94E2062AE030E0B501A401E0
:100430008FED91E00E944A0767E371E08FED91E054
:100440000E94E2064AE050E0B6018FED91E00E9482
:10045000920763E471E08FED91E00E94E2064AE0CA
:1004600050E0B8018FED91E00E94990762E671E0DB
:10047000CE0101960E946F0865E070E080E090E098
:100480000E945209CE0101960E94EC0726960FB6F3
:10049000F894DEBF0FBECDBFDF91CF911F910F91BA
:1004A000FF90EF90DF90CF90BF90AF909F908F9094
:1004B00008950C948E01CF92DF92EF92FF920F93EA
:1004C0001F93CF93DF936C018B017A01EC01CB5624
:1004D000DE4F888187FF04C0FB011182108224C097
:1004E0002CE02C9DC0012D9D900D11242881AC0184
:1004F000420F511D27FD5A952091940130E042177B
:10050000530794F42881AC01420F511D27FD5A95E1
:100510009A01FA01EE0FFF1F2E0F3F1FF901E95656
:10052000FE4F208126FD19C088818F5F88832CE0D3
:100530002C9DC0012D9D900D11242881AC01420FEE
:10054000511D27FD5A952091940130E04217530721
:10055000BCF428812C3044F113C02881820F911DF6
:1005600027FD9A95FC01EE0FFF1F8E0F9F1FFC01C8
:10057000E956FE4F808160E08F730E94240AD4CF39
:10058000F80180819181049680349C4918F480E4BC
:100590009CE904C0F801808191810496F701918360
:1005A00080838FEF888345C0F80140815181288185
:1005B000BC01620F711D27FD7A959B01FB01EE0FB7
:1005C000FF1F2E0F3F1FF901E956FE4F2181328197
:1005D000240F351FF701318320832881AC01420F9E
:1005E000511D27FD5A959A01FA01EE0FFF1F2E0F9C
:1005F0003F1FF901E956FE4F208126FF1AC02881CE
:10060000820F911D27FD9A95FC01EE0FFF1F8E0FA3
:100610009F1FFC01E956FE4F808161E08F73DF91DF
:10062000CF911F910F91FF90EF90DF90CF900C949E
:10063000240ADF91CF911F910F91FF90EF90DF90EF
:10064000CF9008951F920F920FB60F9211240BB600
:100650000F922F933F934F935F936F937F938F935B
:100660009F93AF93BF93EF93FF934AE450E06CE402
:1006700070E081E090E00E945B02FF91EF91BF91FA
:10068000AF919F918F917F916F915F914F913F912A
:100690002F910F900BBE0F900FBE0F901F901895CB
:1006A0001F920F920FB60F9211240BB60F922F9339
:1006B0003F934F935F936F937F938F939F93AF93EA
:1006C000BF93EF93FF9346E850E068E870E080E066
:1006D00090E00E945B02FF91EF91BF91AF919F91DB
:1006E0008F917F916F915F914F913F912F910F90DB
:1006F0000BBE0F900FBE0F901F901895FC019091AC
:1007000094019831A0F481E0890F80939401908343
:10071000892F90E0FC01EE0FFF1F8E0F9F1FFC0141
:10072000E956FE4F88EB9BE09283818308958FEF1B
:1007300080830895DF92EF92FF920F931F93CF93E0
:10074000DF93EC01D62E7A0189018881883108F087
:1007500064C061E08D2D0E94E8098881E82FF0E0F7
:100760009F01220F331FE20FF31FE956FE4F9D2D0D
:100770009F732081207CD22ED92AD08220E232E0C1
:100780002E193F0937FF02C02D5F3F4F3595279542
:1007900035952795298320E639E0201B310B37FF5B
:1007A00002C02D5F3F4F35952795359527952A83B4
:1007B0006CE00E94640A9CE0899FB001112440E033
:1007C00050E09B01240F351FF901EE0FFF1F2E0F84
:1007D0003F1FF901E956FE4F908196FD12C04F5F11
:1007E0005F4F4C30510569F7813001F51FBC82E045
:1007F0008EBD1DBC1CBC86B7806186BF87B780617B
:1008000087BFE881F0E0CF01880F991FE80FF91F3B
:10081000E956FE4F8081806480838881DF91CF918B
:100820001F910F91FF90EF90DF9008958111E9CF14
:1008300010928B0082E080938A00109289001092BF
:10084000880086B7806186BF80917D00806180933B
:100850007D00D7CF20E639E040E252E00C949A03C5
:10086000FC019081983188F5818128E830E0281BCF
:10087000310987FD3395220F331F220F331F621773
:10088000730784F0828148E552E0481B510987FDD7
:100890005395440F551F440F551F9B01461757078B
:1008A0000CF49A0122503109220F331F4FB7F894EC
:1008B000892F90E0FC01EE0FFF1F8E0F9F1FFC01A0
:1008C000E956FE4F328321834FBF0895AF92BF9206
:1008D000CF92DF92EF92FF920F931F93CF93DF930C
:1008E000EC01603282E078070CF03FC077FD06C073
:1008F000653B71052CF064EB70E002C060E070E0D5
:10090000898128E830E05901A81AB10887FDB3941D
:10091000AA0CBB1CAA0CBB1C0B2C000CCC08DD08C1
:10092000072E000C880B990B2A8108E512E0021BA8
:10093000110927FD1395000F111F000F111F012E24
:10094000000C220B330B3F932F931F930F9314EB49
:10095000E12EF12C00E010E020E030E0A9010E943F
:10096000AB070F900F900F900F90CE01DF91CF91BA
:100970001F910F91FF90EF90DF90CF90BF90AF90BD
:100980000C943004FC01918D228D892F90E0805CC5
:100990009F4F821B91098F7399270895FC01918DB8
:1009A000828D981731F0828DE80FF11D858D90E0D2
:1009B00008958FEF9FEF0895FC01918D828D981718
:1009C00061F0828DDF01A80FB11D5D968C91928D33
:1009D0009F5F9F73928F90E008958FEF9FEF089530
:1009E0008EE596E0892B41F080E090E0892B21F0A4
:1009F0000E945E0681110DC080E090E0892B71F0AD
:100A000080E090E0892B51F00E940000811104C029
:100A100008950E940000F0CF0C9400000895FC019E
:100A2000848DDF01A80FB11DA35ABF4F2C91848D77
:100A300090E001968F739927848FA689B7892C93AC
:100A4000A089B1898C9180648C93938D848D981347
:100A500006C00288F389E02D80818F7D8083089510
:100A6000EF92FF920F931F93CF93DF93EC0181E0FE
:100A7000888F9B8D8C8D981305C0E889F9898081BA
:100A800085FD24C0F62E0B8D10E00F5F1F4F0F73F6
:100A90001127E02E8C8DE8120CC00FB607FCFACFA0
:100AA000E889F989808185FFF5CFCE010E940F0585
:100AB000F1CF8B8DFE01E80FF11DE35AFF4FF0825D
:100AC0000B8FEA89FB898081806207C0EE89FF89EC
:100AD0006083E889F98980818064808381E090E087
:100AE000DF91CF911F910F91FF90EF900895CF93D9
:100AF000DF93EC01888D8823C9F0EA89FB89808126
:100B000085FD05C0A889B9898C9186FD0FC00FB6F7
:100B100007FCF5CF808185FFF2CFA889B9898C9138
:100B200085FFEDCFCE010E940F05E7CFDF91CF917A
:100B30000895CF92DF92EF92FF921F93CF93DF93AE
:100B4000EC016A017B01122FE889F98982E0808338
:100B50004115514E61057105B1F060E079E08DE31A
:100B600090E0A70196010E94700ADA01C90101977D
:100B7000A109B109B695A795979587959C0121156F
:100B800080E13807A8F0E889F989108260E874E804
:100B90008EE190E0A70196010E94700ADA01C90176
:100BA0000197A109B109B695A795979587959C01DD
:100BB000EC85FD853083EE85FF852083188EEC89DA
:100BC000FD891083EA89FB89808180618083EA89BD
:100BD000FB89808188608083EA89FB8980818068C5
:100BE0008083EA89FB8980818F7D8083DF91CF912B
:100BF0001F91FF90EF90DF90CF9008951F920F927A
:100C00000FB60F9211240BB60F922F938F939F93D1
:100C1000EF93FF93E091EF01F091F0018081E0917B
:100C2000F501F091F60182FD12C090818091F801EA
:100C30008F5F8F732091F901821751F0E091F801D5
:100C4000F0E0E152FE4F958F8093F80101C0808162
:100C5000FF91EF919F918F912F910F900BBE0F906D
:100C60000FBE0F901F9018951F920F920FB60F9204
:100C700011240BB60F922F933F934F935F936F9373
:100C80007F938F939F93AF93BF93EF93FF938FEDDA
:100C900091E00E940F05FF91EF91BF91AF919F915D
:100CA0008F917F916F915F914F913F912F910F9015
:100CB0000BBE0F900FBE0F901F9018958FED91E017
:100CC0000E94C20421E0892B09F420E0822F0895BC
:100CD000EFEDF1E01382128288EE93E0A0E0B0E045
:100CE00084839583A683B78384E591E09183808391
:100CF00080E990E09587848789E290E097878687EE
:100D00008BE290E0918B808B8AE290E0938B828BD8
:100D100085E990E0958B848B8CE290E0978B868BB5
:100D2000118E128E138E148E0895CF92DF92EF9251
:100D3000FF920F931F93CF93DF936C017A018B0186
:100D4000C0E0D0E0CE15DF0581F0D8016D918D01B6
:100D5000D601ED91FC910190F081E02DC60109953D
:100D6000892B11F02196EECF7E01C701DF91CF9143
:100D70001F910F91FF90EF90DF90CF900895611534
:100D8000710579F0FB0101900020E9F73197AF017F
:100D9000461B570BDC01ED91FC910280F381E02DA5
:100DA000099480E090E00895DB0114964D915C91E8
:100DB00015976D917C91DC01ED91FC910280F3819E
:100DC000E02D09940C94BF06DC01ED91FC9101909B
:100DD000F081E02D099460E671E00C94BF060F935A
:100DE0001F93CF93DF93EC010E94D4068C01CE01B8
:100DF0000E94EB06800F911FDF91CF911F910F9101
:100E000008958F929F92AF92BF92EF92FF920F93AD
:100E10001F93CF93DF93CDB7DEB7A1970FB6F894AA
:100E2000DEBF0FBECDBF7C01FA01CB0119A222307B
:100E300008F42AE08E010F5D1F4F822E912CA12C09
:100E4000B12CBF01A50194010E94700AF901CA01E9
:100E5000015011096A3014F4605D01C0695CD80169
:100E60006C93232B242B252B61F7B801C7010E941B
:100E7000BF06A1960FB6F894DEBF0FBECDBFDF91BF
:100E8000CF911F910F91FF90EF90BF90AF909F90E7
:100E90008F900895CF92DF92EF92FF920F931F935E
:100EA000CF93DF932115310581F4DC01ED91FC91A5
:100EB0000190F081E02D642FDF91CF911F910F9170
:100EC000FF90EF90DF90CF9009942A30310501F523
:100ED00077FF1DC06A017B01EC016DE20E94E40610
:100EE0008C0144275527BA014C195D096E097F0909
:100EF0002AE0CE010E940107800F911FDF91CF9160
:100F00001F910F91FF90EF90DF90CF9008952AE00E
:100F1000DF91CF911F910F91FF90EF90DF90CF90D5
:100F20000C9401079A01AB01770F660B770B0C94B9
:100F30004A070F931F93CF93DF93EC010E94920710
:100F40008C01CE010E94EB06800F911FDF91CF91A3
:100F50001F910F9108954F925F926F927F92AF927F
:100F6000BF92CF92DF92EF92FF920F931F93CF9396
:100F7000DF93CDB7DEB729013A019B01AC012419FB
:100F800035094609570989899A89AB89BC89BC0109
:100F9000CD016A197B098C099D090E94540AA80198
:100FA000970124193509460957090E94920ACA0176
:100FB000B9016A0D7B1D8C1D9D1DDF91CF911F9185
:100FC0000F91FF90EF90DF90CF90BF90AF907F9008
:100FD0006F905F904F900895FC01808191810C94F7
:100FE0006C0BCF93DF93EC0188819981009711F00E
:100FF0000E946C0B198218821D821C821B821A822D
:10100000DF91CF9108950F931F93CF93DF93EC015E
:101010008B016F5F7F4F888199810E94F50B00974C
:1010200031F0998388831B830A8381E001C080E0CB
:10103000DF91CF911F910F910895CF93DF93EC0132
:1010400088819981892B29F08A819B81861797074E
:1010500060F4CE010E940308882341F08C819D81B9
:10106000892B19F4E881F981108281E0DF91CF9119
:101070000895EF92FF920F931F93CF93DF93EC01AC
:101080007B018A01BA010E941D08811104C0CE01B2
:101090000E94F10707C01D830C83B70188819981E5
:1010A0000E940A0DCE01DF91CF911F910F91FF9009
:1010B000EF900895FC011182108213821282158232
:1010C00014826115710551F0FB0101900020E9F7D0
:1010D0003197AF01461B570B0C9439080895CF93F5
:1010E000DF93EC016115710559F0FB0101900020BF
:1010F000E9F73197AF01461B570B0E94390802C030
:101100000E94F107CE01DF91CF910895EF92FF92F7
:101110000F931F93CF93DF936115710511F480E056
:101120001CC041155105C1F07B01EC018C819D81F2
:101130008A01080F191FB801CE010E941D088823DB
:1011400071F3288139818C819D81B701820F931FB2
:101150000E940A0D1D830C8381E0DF91CF911F91C6
:101160000F91FF90EF900895CF93DF9300D0CDB70C
:10117000DEB769831A8241E050E0BE016F5F7F4FA6
:101180000E9486080F900F90DF91CF910895FC0187
:1011900080819181009711F00C94DA0C60E070E08E
:1011A000CB01089508950E948E090E94D2080E94E2
:1011B0007201C0EFD4E00E9459022097E1F30E942F
:1011C000F004F9CF1F920F920FB60F9211242F93B4
:1011D0003F938F939F93AF93BF9380917D029091A4
:1011E0007E02A0917F02B091800230917C0223E0C8
:1011F000230F2D3720F40196A11DB11D05C026E84F
:10120000230F0296A11DB11D20937C0280937D02C5
:1012100090937E02A0937F02B0938002809181021E
:1012200090918202A0918302B09184020196A11D47
:10123000B11D8093810290938202A0938302B093A8
:101240008402BF91AF919F918F913F912F910F9009
:101250000FBE0F901F9018953FB7F89480918102B0
:1012600090918202A0918302B091840222B706B6C7
:1012700000FE05C02F3F19F00196A11DB11D3FBF13
:10128000BA2FA92F982F8827820F911DA11DB11D5C
:10129000BC01CD0142E0660F771F881F991F4A9558
:1012A000D1F708958F929F92AF92BF92CF92DF9223
:1012B000EF92FF926B017C010E942C094B015C01B3
:1012C000C114D104E104F10401F10E94530A0E9407
:1012D0002C09DC01CB0188199909AA09BB09883EB0
:1012E0009340A105B10560F321E0C21AD108E108DD
:1012F000F10888EE880E83E0981EA11CB11CC11471
:10130000D104E104F10419F7DBCFFF90EF90DF90F7
:10131000CF90BF90AF909F908F900895789483B7AF
:10132000806483BF83B7886083BF83B7846083BFD3
:1013300087B7816087BF1EBC8EB582608EBD8EB5BB
:1013400081608EBD8FB581608FBD85B5846085BDA0
:1013500085B5806485BDEAE8F0E0808182608083A5
:10136000808181608083EBE8F0E080818160808310
:10137000329A319A309A379A1AB8089590E0FC015F
:101380003197EC30F10518F5EA5BFF4F0C94B10A88
:101390008FB58F7702C08FB58F7D8FBD08958FB5C4
:1013A000877FFBCF85B58F7D85BD089583B78F7D02
:1013B00083BF089580918B008F7707C080918B0049
:1013C0008F7D03C080918B00877F80938B00089571
:1013D000CF93DF9390E0FC01E752FF4F2491FC0193
:1013E000E25FFE4F8491882361F190E0880F991F9E
:1013F000FC01ED5AFE4FC591D491FC01ED5BFE4F0F
:10140000A591B491611109C09FB7F8948881209586
:1014100082238883EC912E230BC0623061F49FB746
:10142000F8948881322F309583238883EC912E2B7A
:101430002C939FBF06C08FB7F894E8812E2B28838A
:101440008FBFDF91CF9108951F93CF93DF93282F04
:1014500030E0F901EC55FF4F8491F901E752FF4F5D
:10146000D491F901E25FFE4FC491CC23C1F0162F55
:1014700081110E94BE09EC2FF0E0EE0FFF1FED5B23
:10148000FE4FA591B4919FB7F894111104C08C91AF
:10149000D095D82302C0EC91DE2BDC939FBFDF9167
:1014A000CF911F9108950895DB018F939F930E9420
:1014B000BA0ABF91AF91A29F800D911DA39F900D7D
:1014C000B29F900D11240895991B79E004C0991FD3
:1014D000961708F0961B881F7A95C9F7809508958E
:1014E000A1E21A2EAA1BBB1BFD010DC0AA1FBB1F28
:1014F000EE1FFF1FA217B307E407F50720F0A21B9A
:10150000B30BE40BF50B661F771F881F991F1A9406
:1015100069F760957095809590959B01AC01BD0130
:10152000CF010895052E97FB1EF400940E94A90A8E
:1015300057FD07D00E94700A07FC03D04EF40C94AC
:10154000A90A50954095309521953F4F4F4F5F4FD9
:10155000089590958095709561957F4F8F4F9F4F1F
:101560000895EE0FFF1F0024001C0BBE0790F6919C
:10157000E02D09940E94C50AA59F900DB49F900D7F
:10158000A49F800D911D11240895A29FB001B39FC7
:10159000C001A39F700D811D1124911DB29F700D7C
:1015A000811D1124911D08950F931F93CF93DF93F5
:1015B0008230910510F482E090E0E0918702F09192
:1015C000880220E030E0A0E0B0E0309719F14081DF
:1015D00051810281138148175907C8F08417950774
:1015E00069F4109731F012960C93129713961C938E
:1015F00027C0009387021093880222C0211531056D
:1016000019F04217530718F49A01BD01EF01DF01E9
:10161000F801DBCF21153105F9F0281B390B2430F7
:10162000310580F48A819B816115710521F0FB01F0
:101630009383828304C09093880280938702FE0183
:10164000329644C0FE01E20FF31F81939193225022
:101650003109398328833AC020918502309186026E
:10166000232B41F420910201309103013093860233
:10167000209385022091000130910101211531054F
:1016800041F42DB73EB74091040150910501241B50
:10169000350BE0918502F0918602E217F307A0F482
:1016A0002E1B3F0B2817390778F0AC014E5F5F4FB8
:1016B0002417350748F04E0F5F1F50938602409362
:1016C00085028193919302C0E0E0F0E0CF01DF91C9
:1016D000CF911F910F910895CF93DF93009709F455
:1016E00081C0FC01329713821282A0918702B091CF
:1016F0008802109781F420813181820F931F2091FD
:101700008502309186022817390751F5F093860239
:10171000E093850267C0ED0120E030E0CE17DF07DF
:1017200040F44A815B819E0141155105F1F0EA01C7
:10173000F5CFD383C28340815181840F951FC81791
:10174000D90759F488819981840F951F0296918356
:1017500080838A819B81938382832115310529F4BB
:10176000F0938802E09387023DC0E901FB83EA839E
:1017700049915991C40FD51FEC17FD0761F4808181
:101780009181840F951F0296E90199838883828154
:1017900093819B838A83E0E0F0E012968D919C9187
:1017A0001397009719F0FD01DC01F7CF8D919C9103
:1017B00011979D012E5F3F4F820F931F209185024D
:1017C000309186022817390769F4309729F410926E
:1017D00088021092870202C013821282B09386029E
:1017E000A0938502DF91CF9108956F927F928F929F
:1017F0009F92AF92BF92CF92DF92EF92FF920F93A0
:101800001F93CF93DF93009789F4CB01DF91CF91A2
:101810001F910F91FF90EF90DF90CF90BF90AF900E
:101820009F908F907F906F900C94D40AFC01E60FEC
:10183000F71F9C0122503109E217F30708F4A9C0F1
:10184000EC01D9010D911C91119706171707B0F003
:101850000530110508F49BC0C80104978617970747
:1018600008F495C002501109061B170B0193119340
:101870006D937C93CF010E946C0B89C05B01A01A11
:10188000B10A4C01800E911EA0918702B09188028E
:10189000612C712CE12CF12C109709F446C08D912C
:1018A0009C911197A815B905B1F56C0142E0C40EE1
:1018B000D11CCA14DB0478F14C018A189B0864011E
:1018C00042E0C40ED11C1296BC9012971396AC91B4
:1018D000B5E0CB16D10440F0B282A383918280821E
:1018E000D9016D937C9309C00E5F1F4F800F911F2C
:1018F000F90191838083EB2DFA2FE114F10431F08B
:10190000D7011396FC93EE93129741C0F09388028F
:10191000E09387023CC06816790608F43C017D011B
:1019200012960D90BC91A02DB7CF80918502909119
:10193000860288169906E1F466167706C8F4809147
:10194000000190910101009741F48DB79EB740913D
:10195000040150910501841B950BE817F907C8F4A1
:10196000F0938602E0938502F901718360830FC0D2
:10197000CB010E94D40A7C01009759F0A801BE0156
:101980000E94010DCE010E946C0BC70104C0CE0164
:1019900002C080E090E0DF91CF911F910F91FF9006
:1019A000EF90DF90CF90BF90AF909F908F907F90FF
:1019B0006F9008951F93FC0199278827BC01E89434
:1019C00011911032E9F3193010F01E30C8F31B32B8
:1019D00051F01D3249F4689406C00E94110D610F48
:1019E000711D811D911D119110531A30B0F33EF4F9
:1019F00090958095709561957F4F8F4F9F4F1F9168
:101A00000895FB01DC0102C001900D92415050404D
:101A1000D8F70895FB01DC0101900D920020E1F759
:101A20000895592F482F372F262F660F771F881FAD
:101A3000991F660F771F881F991F620F731F841FDE
:101A4000951F660F771F881F991F0895F894FFCF81
:101A500000008902800046005A0064007D004B00AF
:101A600050002E006400640060006E004400526567
:101A70006365697665643A0057726974696E6720B8
:101A8000416E676C653A002C4C656720496E646551
:101A9000783A002C536572766F496E6465783A0027
:101AA0000000000030059506C204DC04CE04770572
:101AB0000D0A006E616E00696E66006F766600004A
:00000001FF
