:100000000C941B010C9445010C9445010C94450182
:100010000C9445010C9445010C9445010C94450148
:100020000C9445010C9445010C9445010C94450138
:100030000C9484070C9445010C9445010C944501E3
:100040000C94F10C0C9445010C94600A0C94960AE3
:100050000C9445010C9445010C9445010C94450108
:100060000C9445010C9445010C94B2070C94450185
:100070000C9445010C9445010C9445010C944501E8
:100080000C9445010C9445010C944501E50DE50DDA
:10009000F60DD70DDA0DDE0DE10DF60DF60DE90DBD
:1000A000ED0DF10D084AD73B3BCE016E84BCBFFD80
:1000B000C12F3D6C74319ABD56833DDA3D00C77F38
:1000C00011BED9E4BB4C3E916BAAAABE00000080D1
:1000D0003F05A84CCDB2D44EB93836A9020C50B960
:1000E000918688083CA6AAAA2ABE000000803F0785
:1000F000634236B79BD8A71A39685618AEBAAB55C3
:100100008C1D3CB7CC5763BD6DEDFD753EF6177287
:1001100031BF000000803F08000000BE9224491259
:100120003EABAAAA2ABECDCCCC4C3E00000080BE7D
:10013000ABAAAAAA3E00000000BF000000803F005A
:1001400000000000084178D3BB4387D1133D190E4E
:100150003CC3BD4282AD2B3E68EC8276BED98FE1B6
:10016000A93E4C80EFFFBE01C4FF7F3F00000000AE
:1001700000000000000A0B0C000000000000010459
:100180000506000000000000000000000000000064
:10019000000000000000000000000000000000005F
:1001A000000000000000000102040810204080014F
:1001B00002040810204080081001020408102040AA
:1001C00080010201020408102040800480402010B9
:1001D00008040201010204081020408005050505FD
:1001E00005050505020202020202020207070404D5
:1001F00004040404040407070303030303030303C1
:1002000007010101010101010106060606060606B5
:100210000600003B00380035003200230062006514
:100220000000003A00370034003100220061006411
:1002300000007E06CA0A11241FBECFEFD0E1DEBF48
:10024000CDBF11E0A0E0B1E0E6E0F7E200E00BBFD7
:1002500002C007900D92AC39B107D9F722E0ACE9A2
:10026000B1E001C01D92A13EB207E1F711E0CBE180
:10027000D1E004C02197FE010E945E13C931D1076D
:10028000C9F70E94E20C0C9481130C9400009B01AE
:10029000AB01440F551FFA01E050FF4F608171819F
:1002A000681B790BCA01820F931F84569E4F0C94D2
:1002B000C8084F925F926F927F928F929F92AF92F7
:1002C000BF92CF92DF92EF92FF920F931F93CF9343
:1002D000DF93CDB7DEB7A4970FB6F894DEBF0FBE9D
:1002E000CDBF698F7A8F8B8F9C8F2D8F3E8F4F8FD5
:1002F00058A3C801B70120913401309135014091D4
:100300003601509137010E94640E6D877E878F877A
:10031000988B298D3A8D4B8D5C8D6D8D7E8D8F8D5B
:1003200098A10E94E30E6D8B7E8B8F8B988F4D84EE
:100330005E846F84788877FA709477F870948091EF
:10034000EC019091ED01A091EE01B091EF01898750
:100350009A87AB87BC876D897E898F89988D0E942B
:10036000470F6B017C016D897E898F89988D0E9472
:10037000D6114B015C01A7019601698D7A8D8B8D99
:100380009C8D0E9419116B017C01A50194016D8D5A
:100390007E8D8F8D98A10E9419119B01AC01C70120
:1003A000B6010E94640E698B7A8B8B8B9C8B9B01B0
:1003B000AC0169857A858B859C850E94630E6D836F
:1003C0007E838F839887C090E401D090E501E09010
:1003D000E601F090E7018091E8019091E901A09198
:1003E000EA01B091EB0189839A83AB83BC832985B1
:1003F0003A854B855C85CA01B9010E94640E298942
:100400003A894B895C890E9419114B015C01A70153
:100410009601C701B6010E9419119B01AC01C501EB
:10042000B4010E94640E6B017C0129813A814B81E9
:100430005C81CA01B9010E9419119B01AC01C7017D
:10044000B6010E94630E6B017C0129853A854B85BC
:100450005C85CA01B9010E9419119B01AC01C70159
:10046000B6010E94630E6B017C012D853E854F8590
:100470005889CA01B9010E9419119B01AC01C70139
:10048000B6010E94630E6B017C0129893A894B8970
:100490005C89CA01B9010E9419119B01AC01C70115
:1004A000B6010E94630E6B017C0129813A814B8168
:1004B0005C81CA01B9010E94640E9B01AC01C701B5
:1004C000B6010E944C0F6B017C01A30192016D816A
:1004D0007E818F8198850E94E30E4B015C01A30110
:1004E0009201C301B2010E9419112B013C012D811F
:1004F0003E814F815885CA01B9010E9419119B01A3
:10050000AC01C301B2010E94640E2B013C01A701A2
:100510009601C701B6010E9419119B01AC01C301EC
:10052000B2010E94630E20E030E040E05FE30E94F1
:1005300086112B013C019B01AC01C701B6010E9451
:10054000E30EA50194010E94630E6D837E838F8369
:100550009887A30192015058C701B6010E94E30E8B
:10056000A50194010E94630E2B013C016D817E81E7
:100570008F8198850E94470F6B017C016D817E8180
:100580008F8198850E94D6114B015C01A7019601CD
:1005900069817A818B819C810E9419119B01AC0138
:1005A00069897A898B899C890E94630E29853A859D
:1005B0004B855C850E94630E6B017C01A501940153
:1005C00069817A818B819C810E9419119B01AC0108
:1005D0006D857E858F8598890E94630EA70196019F
:1005E0000E94E30E6B017C01C301B2010E94470F20
:1005F0004B015C01C301B2010E94D61169A37AA329
:100600008BA39CA3A501940169817A818B819C8134
:100610000E9419119B01AC0169897A898B899C8997
:100620000E94630E29853A854B855C850E94630E86
:100630004B015C0129A13AA14BA15CA169817A819E
:100640008B819C810E9419119B01AC016D857E8577
:100650008F8598890E94630EA50194010E94E30E84
:100660004B015C0120EE3EE245E652E46D897E8955
:100670008F89988D0E9419116093E0017093E101B8
:100680008093E2019093E30120EE3EE245E652E4DE
:100690006D817E818F8198850E9419116093DC01A4
:1006A0007093DD018093DE019093DF0120EE3EE246
:1006B00045E652E4C301B2010E9419116093D801CA
:1006C0007093D9018093DA019093DB012D813E81F3
:1006D0004F815885C701B6010E94630E20EE3EE2AD
:1006E00045E652E40E94191120E030E044EB52E468
:1006F0000E94640E6093D4017093D5018093D6015B
:100700009093D701A3019201C501B4010E94630E29
:1007100020EE3EE245E652E40E94191120E030E06E
:1007200044EB52E40E94640E6093D0017093D101B7
:100730008093D2019093D30168E371E08BE392E060
:100740000E94360B22E030E0498D5A8D6B8D7C8DF6
:100750008BE392E00E948C0C6EE371E08BE392E0FD
:100760000E94360B22E030E04D8D5E8D6F8D78A1BA
:100770008BE392E00E948C0C6EE371E08BE392E0DD
:100780000E94360B22E030E04D855E856F857889CA
:100790008BE392E00E948C0C60E471E08BE392E0CA
:1007A0000E94360B4091E0015091E1016091E2011D
:1007B0007091E30122E030E08BE392E00E948C0C28
:1007C0006EE371E08BE392E00E94360B4091DC0116
:1007D0005091DD016091DE017091DF0122E030E097
:1007E0008BE392E00E948C0C6EE371E08BE392E06D
:1007F0000E94360B4091D4015091D5016091D601F1
:100800007091D70122E030E08BE392E0A4960FB61E
:10081000F894DEBF0FBECDBFDF91CF911F910F9136
:10082000FF90EF90DF90CF90BF90AF909F908F9010
:100830007F906F905F904F900C948E0C9B012D7F5A
:10084000232B49F06430710531F09B0128503109A8
:100850002330310590F4AB01440F551FFA01E050ED
:10086000FF4F20813181280F391FCA01860F971F42
:10087000B90184569E4F0C94C8080C9447012F92DE
:100880003F924F925F926F927F928F929F92AF9220
:10089000BF92CF92DF92EF92FF920F931F93CF936D
:1008A000C82F2A013B014801590162E471E08BE342
:1008B00092E00E94430BC234F1F06CF4C13491F524
:1008C0008092CC019092CD01A092CE01B092CF0146
:1008D000212C312C27C0C334D1F0C43419F58092B7
:1008E000C0019092C101A092C201B092C30189E0FF
:1008F000282E312C17C08092C8019092C901A09275
:10090000CA01B092CB0123E0222E312C0BC0809281
:10091000C4019092C501A092C601B092C70196E0B1
:10092000292E312C87017601A5019401C301B20162
:100930000E9459016091DC017091DD018091DE011E
:100940009091DF010E94BE0F4B015C016091D401C8
:100950007091D5018091D6019091D7010E94BE0F70
:100960006B017C016091E0017091E1018091E201F5
:100970009091E3010E94BE0FDC01CB01B1010E9406
:100980001E04B1016F5F7F4FC4010E941E04B101BC
:100990006E5F7F4FC601CF911F910F91FF90EF9037
:1009A000DF90CF90BF90AF909F908F907F906F908F
:1009B0005F904F903F902F900C941E04CF92DF9247
:1009C000EF92FF920F931F9368E571E08BE392E043
:1009D0000E94430B009124011091250120912601D2
:1009E00030912701C12CD12C80E5E82E81ECF82E26
:1009F00040E050E060E870E481E40E943F04009130
:100A0000200110912101209122013091230140E029
:100A100050E060E870E482E40E943F0400911C0111
:100A200010911D0120911E0130911F0140E050E006
:100A300060E870E483E40E943F0400911801109183
:100A4000190120911A0130911B0140E050E060E84B
:100A500070E484E40E943F04809124019091250178
:100A6000A0912601B09127018093CC019093CD01F4
:100A7000A093CE01B093CF018091200190912101EC
:100A8000A0912201B09123018093C8019093C901E4
:100A9000A093CA01B093CB0180911C0190911D01DC
:100AA000A0911E01B0911F018093C4019093C501D4
:100AB000A093C601B093C7018091180190911901CC
:100AC000A0911A01B0911B018093C0019093C101C4
:100AD000A093C201B093C3011F910F91FF90EF90BB
:100AE000DF90CF90089566E170E08CE991E00E947C
:100AF0008C0868E170E08FE991E00E948C0869E160
:100B000070E082EA91E00E948C0864E170E085EA7E
:100B100091E00E948C086CE070E088EA91E00E940D
:100B20008C0862E170E08BEA91E00E948C086EE133
:100B300070E08EEA91E00E948C086DE070E081EB3D
:100B400091E00E948C086CE170E084EB91E00E94DF
:100B50008C0863E070E087EB91E00E948C0864E011
:100B600070E08AEB91E00E948C0863E270E08DEB0C
:100B700091E00C948C0826E040E052EC61E070E0DB
:100B80008BE392E00E94FB0963E771E08BE392E064
:100B90000E94430B0E9473050C94DE0461E070E038
:100BA00088E290E00E94470164EF71E080E090E00D
:100BB0000E94610D60E070E082E390E00E941E04FC
:100BC00064EF71E080E090E00E94610D61E070E010
:100BD00080E090E00E94470164EF71E080E090E0E7
:100BE0000E94610D67E070E088E290E00E9447019A
:100BF00064EF71E080E090E00E94610D66E070E0DB
:100C000086EF9FEF0E94470164EF71E080E090E083
:100C10000E94610D67E070E080E090E00E94470173
:100C200064EF71E080E090E00E94610D64E070E0AC
:100C300088E290E00E941E0464EF71E080E090E0A2
:100C40000E94610D63E070E08AE090E00E9447013D
:100C500064EF71E080E090E00E94610D64E070E07C
:100C600080E090E00E941E0464EF71E080E090E07C
:100C70000E94610D6AE070E088E290E00E941E042C
:100C800064EF71E080E090E00E94610D69E070E047
:100C90008EEC9FEF0E941E0464EF71E080E090E014
:100CA0000E94610D6AE070E080E090E00E941E0406
:100CB00064EF71E080E090E00E94610D60E070E020
:100CC0008EE190E00E941E0463E070E08EE190E00F
:100CD0000E94470166E070E08EE190E00E944701CB
:100CE00069E070E08EE190E00E941E0464EF71E024
:100CF00080E090E00C94610D0C94CE05CF93DF93CF
:100D00008091300190913101A0913201B091330175
:100D10008093EC019093ED01A093EE01B093EF016D
:100D200080912C0190912D01A0912E01B0912F0165
:100D30008093E8019093E901A093EA01B093EB015D
:100D40008091280190912901A0912A01B0912B0155
:100D50008093E4019093E501A093E601B093E7014D
:100D6000CCE9D1E0CE010E94E007239681E0C03CAF
:100D7000D807C1F7DF91CF910895CF92DF92EF921C
:100D8000FF920F931F93CF93DF936C018B017A0136
:100D9000EC01CF50DE4F888187FF04C0FB01118238
:100DA000108224C02CE02C9DC0012D9D900D11249B
:100DB0002881AC01420F511D27FD5A952091F00169
:100DC00030E04217530794F42881AC01420F511DC3
:100DD00027FD5A959A01FA01EE0FFF1F2E0F3F1FB4
:100DE000F901ED50FE4F208126FD19C088818F5FEB
:100DF00088832CE02C9DC0012D9D900D112428810D
:100E0000AC01420F511D27FD5A952091F00130E0B1
:100E100042175307BCF428812C3044F113C02881B9
:100E2000820F911D27FD9A95FC01EE0FFF1F8E0F7B
:100E30009F1FFC01ED50FE4F808160E08F730E9488
:100E4000330ED4CFF80180819181049680349C497F
:100E500018F480E49CE904C0F80180819181049633
:100E6000F701918380838FEF888345C0F80140812B
:100E700051812881BC01620F711D27FD7A959B016C
:100E8000FB01EE0FFF1F2E0F3F1FF901ED50FE4F2C
:100E900021813281240F351FF7013183208328817E
:100EA000AC01420F511D27FD5A959A01FA01EE0F30
:100EB000FF1F2E0F3F1FF901ED50FE4F208126FF2F
:100EC0001AC02881820F911D27FD9A95FC01EE0F13
:100ED000FF1F8E0F9F1FFC01ED50FE4F808161E0D0
:100EE0008F73DF91CF911F910F91FF90EF90DF9063
:100EF000CF900C94330EDF91CF911F910F91FF9003
:100F0000EF90DF90CF9008951F920F920FB60F923F
:100F100011240BB60F922F933F934F935F936F93D0
:100F20007F938F939F93AF93BF93EF93FF934AE485
:100F300050E06CE470E081E090E00E94BD06FF911B
:100F4000EF91BF91AF919F918F917F916F915F9141
:100F50004F913F912F910F900BBE0F900FBE0F90AE
:100F60001F9018951F920F920FB60F9211240BB677
:100F70000F922F933F934F935F936F937F938F9332
:100F80009F93AF93BF93EF93FF9346E850E068E8D9
:100F900070E080E090E00E94BD06FF91EF91BF916C
:100FA000AF919F918F917F916F915F914F913F9101
:100FB0002F910F900BBE0F900FBE0F901F901895A2
:100FC000FC019091F0019831A0F481E0890F8093A9
:100FD000F0019083892F90E0FC01EE0FFF1F8E0F30
:100FE0009F1FFC01ED50FE4F88EB9BE092838183B5
:100FF00008958FEF80830895DF92EF92FF920F9311
:101000001F93CF93DF93EC01D62E7A01890188815B
:10101000883108F064C061E08D2D0E94F70D888151
:10102000E82FF0E09F01220F331FE20FF31FED5076
:10103000FE4F9D2D9F732081207CD22ED92AD082F5
:1010400020E232E02E193F0937FF02C02D5F3F4FEB
:101050003595279535952795298320E639E0201B7E
:10106000310B37FF02C02D5F3F4F359527953595E2
:1010700027952A836CE00E9411139CE0899FB001A0
:10108000112440E050E09B01240F351FF901EE0FC1
:10109000FF1F2E0F3F1FF901ED50FE4F908196FD6F
:1010A00012C04F5F5F4F4C30510569F7813001F539
:1010B0001FBC82E08EBD1DBC1CBC86B7806186BF94
:1010C00087B7806187BFE881F0E0CF01880F991F63
:1010D000E80FF91FED50FE4F808180648083888186
:1010E000DF91CF911F910F91FF90EF90DF900895C6
:1010F0008111E9CF10928B0082E080938A001092D8
:1011000089001092880086B7806186BF80917D003B
:10111000806180937D00D7CF20E639E040E252E045
:101120000C94FC07FC019081983188F5818128E8B6
:1011300030E0281B310987FD3395220F331F220F22
:10114000331F6217730784F0828148E552E0481B21
:10115000510987FD5395440F551F440F551F9B019F
:10116000461757070CF49A0122503109220F331FFA
:101170004FB7F894892F90E0FC01EE0FFF1F8E0F00
:101180009F1FFC01ED50FE4F328321834FBF089516
:10119000AF92BF92CF92DF92EF92FF920F931F9385
:1011A000CF93DF93EC01603282E078070CF03FC010
:1011B00077FD06C0653B71052CF064EB70E002C062
:1011C00060E070E0898128E830E05901A81AB10890
:1011D00087FDB394AA0CBB1CAA0CBB1C0B2C000CE7
:1011E000CC08DD08072E000C880B990B2A8108E536
:1011F00012E0021B110927FD1395000F111F000FAC
:10120000111F012E000C220B330B3F932F931F93C2
:101210000F9314EBE12EF12C00E010E020E030E021
:10122000A9010E94A00C0F900F900F900F90CE017B
:10123000DF91CF911F910F91FF90EF90DF90CF90B2
:10124000BF90AF900C949208FC01918D228D892F54
:1012500090E0805C9F4F821B91098F7399270895BE
:10126000FC01918D828D981731F0828DE80FF11D70
:10127000858D90E008958FEF9FEF0895FC01918D8B
:10128000828D981761F0828DDF01A80FB11D5D96E8
:101290008C91928D9F5F9F73928F90E008958FEF56
:1012A0009FEF089580EC9AE0892B41F080E090E078
:1012B000892B21F00E94C00A81110DC080E090E0CE
:1012C000892B71F080E090E0892B51F00E940000A2
:1012D000811104C008950E940000F0CF0C9400001A
:1012E0000895FC01848DDF01A80FB11DA35ABF4FE3
:1012F0002C91848D90E001968F739927848FA68915
:10130000B7892C93A089B1898C9180648C93938D3B
:10131000848D981306C00288F389E02D80818F7D2B
:1013200080830895EF92FF920F931F93CF93DF93E3
:10133000EC0181E0888F9B8D8C8D981305C0E88926
:10134000F989808185FD24C0F62E0B8D10E00F5F9A
:101350001F4F0F731127E02E8C8DE8120CC00FB6B3
:1013600007FCFACFE889F989808185FFF5CFCE01A6
:101370000E947109F1CF8B8DFE01E80FF11DE35A38
:10138000FF4FF0820B8FEA89FB898081806207C062
:10139000EE89FF896083E889F98980818064808390
:1013A00081E090E0DF91CF911F910F91FF90EF903E
:1013B0000895CF93DF93EC01888D8823C9F0EA89E3
:1013C000FB89808185FD05C0A889B9898C9186FD3E
:1013D0000FC00FB607FCF5CF808185FFF2CFA8893B
:1013E000B9898C9185FFEDCFCE010E947109E7CFBD
:1013F000DF91CF910895CF92DF92EF92FF921F93EA
:10140000CF93DF93EC016A017B01122FE889F98900
:1014100082E080834115514E61057105B1F060E0B5
:1014200079E08DE390E0A70196010E941D13DA0197
:10143000C9010197A109B109B695A7959795879517
:101440009C01211580E13807A8F0E889F98910820C
:1014500060E874E88EE190E0A70196010E941D13F8
:10146000DA01C9010197A109B109B695A795979528
:1014700087959C01EC85FD853083EE85FF85208373
:10148000188EEC89FD891083EA89FB89808180614F
:101490008083EA89FB89808188608083EA89FB896F
:1014A000808180688083EA89FB8980818F7D808349
:1014B000DF91CF911F91FF90EF90DF90CF90089533
:1014C0001F920F920FB60F9211240BB60F922F930B
:1014D0008F939F93EF93FF93E0914B02F0914C0217
:1014E0008081E0915102F091520282FD12C0908100
:1014F000809154028F5F8F7320915502821751F0B3
:10150000E0915402F0E0E55CFD4F958F809354022A
:1015100001C08081FF91EF919F918F912F910F904A
:101520000BBE0F900FBE0F901F9018951F920F9239
:101530000FB60F9211240BB60F922F933F934F9338
:101540005F936F937F938F939F93AF93BF93EF932B
:10155000FF938BE392E00E947109FF91EF91BF919D
:10156000AF919F918F917F916F915F914F913F913B
:101570002F910F900BBE0F900FBE0F901F901895DC
:101580008BE392E00E94240921E0892B09F420E0FA
:10159000822F0895EBE3F2E01382128288EE93E04B
:1015A000A0E0B0E084839583A683B78380E891E0D0
:1015B0009183808380E990E09587848789E290E039
:1015C000978786878BE290E0918B808B8AE290E010
:1015D000938B828B85E990E0958B848B8CE290E0F5
:1015E000978B868B118E128E138E148E0895CF9248
:1015F000DF92EF92FF920F931F93CF93DF936C01D3
:101600007A018B01C0E0D0E0CE15DF0581F0D80172
:101610006D918D01D601ED91FC910190F081E02D4D
:10162000C6010995892B11F02196EECF7E01C701E5
:10163000DF91CF911F910F91FF90EF90DF90CF90AE
:1016400008956115710579F0FB0101900020E9F71B
:101650003197AF01461B570BDC01ED91FC910280E5
:10166000F381E02D099480E090E008950C94210B23
:10167000DC01ED91FC910190F081E02D09946CE882
:1016800071E00C94210B0F931F93CF93DF93EC0128
:101690000E94210B8C01CE010E943F0B800F911FF5
:1016A000DF91CF911F910F9108958F929F92AF92EA
:1016B000BF92EF92FF920F931F93CF93DF93CDB71B
:1016C000DEB7A1970FB6F894DEBF0FBECDBF7C0189
:1016D000FA01CB0119A2223008F42AE08E010F5D35
:1016E0001F4F822E912CA12CB12CBF01A50194017A
:1016F0000E941D13F901CA01015011096A3014F446
:10170000605D01C0695CD8016C93232B242B252BD1
:1017100061F7B801C7010E94210BA1960FB6F8949A
:10172000DEBF0FBECDBFDF91CF911F910F91FF9014
:10173000EF90BF90AF909F908F9008952115310545
:1017400041F4DC01ED91FC910190F081E02D642FDA
:1017500009940C94550B9A01AB0160E070E00C9475
:101760009E0B7F928F929F92AF92BF92CF92DF9209
:10177000EF92FF920F931F93CF93DF938C016A0137
:101780007B01722E9A01AB01C701B6010E94E211E2
:10179000882319F06FE871E027C046015701E894EB
:1017A000B7F82FEF3FEF4FE75FE7C501B4010E94A5
:1017B000E21181110DC02FEF3FEF4FE75FE7C50149
:1017C000B4010E94420F18161CF463E971E00CC0CA
:1017D0002FEF3FEF4FE75FE4C701B6010E940C1106
:1017E000181694F467E971E0C801DF91CF911F9159
:1017F0000F91FF90EF90DF90CF90BF90AF909F90B0
:101800008F907F900C94210B2FEF3FEF4FE75FEC11
:10181000C701B6010E94420F87FDE4CF20E030E00F
:10182000A901C701B6010E94420F87FF0AC06DE2FD
:10183000C8010E94380BEC01F7FAF094F7F8F09425
:1018400002C0C0E0D0E0B12C60E070E080E09FE337
:101850007B1441F020E030E040E251E40E944C0F64
:10186000B394F6CFA70196010E94640E6B017C0130
:101870000E94C50F4B015C012AE0AB01BC01C8010D
:101880000E94550BC80FD91F7720B9F1C501B401CB
:101890000E94F40F9B01AC01C701B6010E94630EC8
:1018A0006B017C016EE2C8010E94380BC80FD91F82
:1018B00020E030E040E251E4C701B6010E94191176
:1018C0004B015C010E94C50F6B017C014AE050E0B6
:1018D000C8010E94AB0BC80FD91FB60180E090E091
:1018E0000E94F40F9B01AC01C501B4010E94630E7C
:1018F0006B017C017A947110DBCFCE01DF91CF9127
:101900001F910F91FF90EF90DF90CF90BF90AF901D
:101910009F908F907F9008950C94B10B0F931F931D
:10192000CF93DF93EC010E94B10B8C01CE010E949A
:101930003F0B800F911FDF91CF911F910F91089561
:101940004F925F926F927F92AF92BF92CF92DF924F
:10195000EF92FF920F931F93CF93DF93CDB7DEB734
:1019600029013A019B01AC0124193509460957099F
:1019700089899A89AB89BC89BC01CD016A197B0927
:101980008C099D090E940113A801970124193509AA
:10199000460957090E943F13CA01B9016A0D7B1D10
:1019A0008C1D9D1DDF91CF911F910F91FF90EF90A6
:1019B000DF90CF90BF90AF907F906F905F904F90EF
:1019C000089508950E949D0D0E94E10C0E94BB05A0
:1019D000C2E5D9E00E947C062097E1F30E945209FB
:1019E000F9CF1F920F920FB60F9211242F933F93AE
:1019F0008F939F93AF93BF938091D9029091DA0216
:101A0000A091DB02B091DC023091D80223E0230FD9
:101A10002D3720F40196A11DB11D05C026E8230F26
:101A20000296A11DB11D2093D8028093D9029093F4
:101A3000DA02A093DB02B093DC028091DD02909188
:101A4000DE02A091DF02B091E0020196A11DB11D5E
:101A50008093DD029093DE02A093DF02B093E00258
:101A6000BF91AF919F918F913F912F910F900FBE9A
:101A70000F901F9018953FB7F8948091DD029091D8
:101A8000DE02A091DF02B091E00222B706B600FEAE
:101A900005C02F3F19F00196A11DB11D3FBFBA2F00
:101AA000A92F982F8827820F911DA11DB11DBC0160
:101AB000CD0142E0660F771F881F991F4A95D1F725
:101AC00008958F929F92AF92BF92CF92DF92EF9242
:101AD000FF926B017C010E943B0D4B015C01C11424
:101AE000D104E104F10401F10E94620E0E943B0D59
:101AF000DC01CB0188199909AA09BB09883E9340EA
:101B0000A105B10560F321E0C21AD108E108F1088E
:101B100088EE880E83E0981EA11CB11CC114D1046C
:101B2000E104F10419F7DBCFFF90EF90DF90CF9045
:101B3000BF90AF909F908F900895789483B7806402
:101B400083BF83B7886083BF83B7846083BF87B751
:101B5000816087BF1EBC8EB582608EBD8EB58160F0
:101B60008EBD8FB581608FBD85B5846085BD85B51F
:101B7000806485BDEAE8F0E08081826080838081B6
:101B800081608083EBE8F0E0808181608083329A1D
:101B9000319A309A379A1AB8089590E0FC0131973B
:101BA000EC30F10518F5EA5BFF4F0C945E138FB52E
:101BB0008F7702C08FB58F7D8FBD08958FB5877FDA
:101BC000FBCF85B58F7D85BD089583B78F7D83BF9E
:101BD000089580918B008F7707C080918B008F7D57
:101BE00003C080918B00877F80938B000895CF93F3
:101BF000DF9390E0FC01E955FE4F2491FC01E45293
:101C0000FE4F8491882361F190E0880F991FFC01B9
:101C1000EF5DFD4FC591D491FC01EF5EFD4FA591A5
:101C2000B491611109C09FB7F894888120958223EF
:101C30008883EC912E230BC0623061F49FB7F89437
:101C40008881322F309583238883EC912E2B2C931F
:101C50009FBF06C08FB7F894E8812E2B28838FBFD3
:101C6000DF91CF9108951F93CF93DF93282F30E01A
:101C7000F901EE58FE4F8491F901E955FE4FD491D8
:101C8000F901E452FE4FC491CC23C1F0162F81110B
:101C90000E94CD0DEC2FF0E0EE0FFF1FEF5EFD4F29
:101CA000A591B4919FB7F894111104C08C91D0956F
:101CB000D82302C0EC91DE2BDC939FBFDF91CF9144
:101CC0001F91089508955058BB27AA270E947B0EA4
:101CD0000C94BE100E94851038F00E948C1020F0E9
:101CE00039F49F3F19F426F40C945B100EF4E09540
:101CF000E7FB0C945510E92F0E94E31058F3BA1734
:101D0000620773078407950720F079F4A6F50C9411
:101D100005110EF4E0950B2EBA2FA02D0B01B90181
:101D200090010C01CA01A0011124FF27591B99F051
:101D3000593F50F4503E68F11A16F040A22F232F5D
:101D4000342F4427585FF3CF469537952795A795AD
:101D5000F0405395C9F77EF41F16BA0B620B730B54
:101D6000840BBAF09150A1F0FF0FBB1F661F771FC5
:101D7000881FC2F70EC0BA0F621F731F841F48F47A
:101D8000879577956795B795F7959E3F08F0B0CF03
:101D90009395880F08F09927EE0F979587950895EA
:101DA0000E94851060F080E891E009F49EEF0E94A7
:101DB0008C1028F040E851E071F45EEF0CC00C94F8
:101DC0005B100C940511E92FE0780E94E31040F3BA
:101DD000092E052AB1F3261737074807590738F0A7
:101DE0000E2E07F8E02569F0E025E0640AC0EF63F5
:101DF00007F8009407FADB01B9019D01DC01CA0173
:101E0000AD01EF930E94630F0E94BE100E94130F5A
:101E10005F91552339F02BED3FE049E450FD49EC4B
:101E20000C94640E0895DF93DD27B92FBF7740E847
:101E30005FE31616170648075B0718F4D92F0E94B0
:101E400011119F938F937F936F930E94DE11E4EAA9
:101E5000F0E00E945E100E94BE102F913F914F91C2
:101E60005F910E942C11DD2351F09058A2EA2AEDD7
:101E70003FE049EC5FE3D0785D270E947B0EDF9165
:101E80000C94BE100E94311008F481E008950E9465
:101E90009510E3950C94CF100E94600F0C94BE1027
:101EA0000E948C1058F00E94851040F029F45F3F8A
:101EB00029F00C94551051110C9406110C945B10E0
:101EC0000E94E31068F39923B1F3552391F3951B16
:101ED000550BBB27AA2762177307840738F09F5F4B
:101EE0005F4F220F331F441FAA1FA9F335D00E2EB8
:101EF0003AF0E0E832D091505040E695001CCAF725
:101F00002BD0FE2F29D0660F771F881FBB1F2617E7
:101F100037074807AB07B0E809F0BB0B802DBF01BE
:101F2000FF2793585F4F3AF09E3F510578F00C948D
:101F300055100C9406115F3FE4F3983ED4F3869558
:101F400077956795B795F7959F5FC9F7880F911DAE
:101F50009695879597F90895E1E0660F771F881F9A
:101F6000BB1F621773078407BA0720F0621B730B4D
:101F7000840BBA0BEE1F88F7E09508950E94C50FF9
:101F80006894B1110C94061108950E94EB1088F02A
:101F90009F5798F0B92F9927B751B0F0E1F0660F2D
:101FA000771F881F991F1AF0BA95C9F714C0B1306E
:101FB00091F00E940511B1E008950C940511672F6E
:101FC000782F8827B85F39F0B93FCCF3869577959D
:101FD0006795B395D9F73EF4909580957095619586
:101FE0007F4F8F4F9F4F0895E89409C097FB3EF4B1
:101FF00090958095709561957F4F8F4F9F4F992356
:10200000A9F0F92F96E9BB279395F69587957795D3
:102010006795B795F111F8CFFAF4BB0F11F460FF93
:102020001BC06F5F7F4F8F4F9F4F16C0882311F0EB
:1020300096E911C0772321F09EE8872F762F05C0FF
:10204000662371F096E8862F70E060E02AF09A959A
:10205000660F771F881FDAF7880F9695879597F98F
:102060000895990F0008550FAA0BE0E8FEEF161629
:102070001706E807F907C0F012161306E407F5077C
:1020800098F0621B730B840B950B39F40A2661F0F0
:10209000232B242B252B21F408950A2609F4A14093
:1020A000A6958FEF811D811D089597F99F6780E8A0
:1020B00070E060E008959FEF80EC0895DF93CF9388
:1020C0001F930F93FF92EF92DF927B018C01689434
:1020D00006C0DA2EEF010E942C11FE01E894A591B2
:1020E0002591359145915591A6F3EF010E947B0E04
:1020F000FE019701A801DA9469F7DF90EF90FF9055
:102100000F911F91CF91DF91089500240A94161624
:10211000170618060906089500240A9412161306D5
:102120001406050608950C945B100E94EB10D8F37A
:10213000E894E0E0BB279F57F0F02AED3FE049EC40
:1021400006C0EE0FBB0F661F771F881F28F0B23A3C
:1021500062077307840728F0B25A620B730B840B73
:10216000E3959A9572F7803830F49A95BB0F661F05
:10217000771F881FD2F790480C942312092E0394DE
:10218000000C11F4882352F0BB0F40F4BF2B11F464
:1021900060FF04C06F5F7F4F8F4F9F4F0895EF9395
:1021A000E0FF07C0A2EA2AED3FE049EC5FEB0E94A6
:1021B0007B0E0E94BE100F90039401FC9058E1ED3D
:1021C000F0E00C942F1257FD9058440F551F59F012
:1021D0005F3F71F04795880F97FB991F61F09F3F14
:1021E00079F087950895121613061406551FF2CF3D
:1021F0004695F1DF08C0161617061806991FF1CF8D
:1022000086957105610508940895E894BB276627B3
:102210007727CB0197F908950E94311008F48FEFCA
:1022200008959B01AC0160E070E080E89FE30C94AE
:102230004C0F0E942C110C94BE100E94851038F097
:102240000E948C1020F0952311F00C9455100C94E2
:102250005B1011240C9406110E94E31070F3959FFB
:10226000C1F3950F50E0551F629FF001729FBB278D
:10227000F00DB11D639FAA27F00DB11DAA1F649F29
:102280006627B00DA11D661F829F2227B00DA11DDC
:10229000621F739FB00DA11D621F839FA00D611D62
:1022A000221F749F3327A00D611D231F849F600D83
:1022B000211D822F762F6A2F11249F5750409AF0AC
:1022C000F1F088234AF0EE0FFF1FBB1F661F771F38
:1022D000881F91505040A9F79E3F510580F00C9403
:1022E00055100C9406115F3FE4F3983ED4F38695A5
:1022F00077956795B795F795E7959F5FC1F7FE2BA3
:10230000880F911D9695879597F90895FA01EE0F1C
:10231000FF1F309621053105A1F16115710561F4AA
:102320008038BFE39B0749F168949038810561F0DC
:102330008038BFEF9B0741F099234AF5FF3FE10545
:102340003105210519F1E8940894E795D901AA23EC
:1023500029F4AB2FBE2FF85FD0F310C0FF5F70F4ED
:10236000A695E0F7F73950F019F0FF3A38F49F7767
:102370009F930DD00F9007FC9058089546F00C9451
:102380005B1060E070E080E89FE308954FE79F777F
:102390005F934F933F932F930E9485122F913F910C
:1023A0004F915F910E9419110C94EF119F930E941D
:1023B00095100F9007FCEE5F0C94CF109B01AC01C1
:1023C0000C9419110E943110880B990B089529F46F
:1023D00016F00C9455100C9405110C945B100E948F
:1023E000EB10A8F39638A0F707F80F92E8942BE3C8
:1023F0003AEA48EB5FE70E942F110F920F920F927B
:102400004DB75EB70F920E94CD12EFEEF0E00E9442
:102410005E104F915F91EF91FF91E595EE1FFF1FC9
:1024200049F0FE57E0684427EE0F441FFA95E1F7A4
:102430004195550B0E9447120F9007FE0C94111105
:1024400008959F3F31F0915020F4879577956795D7
:10245000B795880F911D9695879597F908959F9345
:102460008F937F936F93FF93EF939B01AC010E9437
:102470001911EF91FF910E945E102F913F914F91A2
:102480005F910C9419110C9455100C9421120E9418
:10249000EB10D8F39923C9F3940F511DA3F3915076
:1024A000504094F059F0882332F0660F771F881F50
:1024B00091505040C1F79E3F51052CF7880F911D58
:1024C0009695879597F908955F3FACF0983E9CF0FC
:1024D000BB27869577956795B79508F4B160939576
:1024E000C1F7BB0F58F711F460FFE8CF6F5F7F4F64
:1024F0008F4F9F4FE3CF0C94061116F00C942112CE
:102500000C945B1068940C9455100E94EB10A8F387
:102510009923C1F3AEF3DF93CF931F930F93FF92F1
:10252000C92FDD2788232AF02197660F771F881F80
:10253000DAF720E030E040E85FEB9FE3883920F0F5
:10254000803E38F021968F770E94640EE7E1F1E03B
:1025500004C00E94640EE4E4F1E00E945E108B016E
:10256000BE01EC01FB2E6F5771097595771F880B23
:10257000990B0E94F60F28E132E741E35FE30E94E6
:102580002C11AF2D9801AE01FF900F911F91CF91AB
:10259000DF910E947B0E0C94BE10FA01DC01AA0FA1
:1025A000BB1F9B01AC01BF5728F4222733274427C8
:1025B000507820C0B75190F4AB2F00244695379542
:1025C0002795011CA395D2F3002071F0220F331F31
:1025D000441FB395DAF30ED00C94630E613071058D
:1025E000A0E88A07B94630F49B01AC01662777273B
:1025F00088279078309621F020833183428353835B
:102600000895DB018F939F930E946713BF91AF9151
:10261000A29F800D911DA39F900DB29F900D11243C
:102620000895991B79E004C0991F961708F0961B2E
:10263000881F7A95C9F780950895A1E21A2EAA1BE2
:10264000BB1BFD010DC0AA1FBB1FEE1FFF1FA21762
:10265000B307E407F50720F0A21BB30BE40BF50B5F
:10266000661F771F881F991F1A9469F760957095E8
:10267000809590959B01AC01BD01CF010895052E79
:1026800097FB1EF400940E94561357FD07D00E943A
:102690001D1307FC03D04EF40C945613509540952F
:1026A000309521953F4F4F4F5F4F089590958095FE
:1026B000709561957F4F8F4F9F4F0895EE0FFF1FCD
:1026C0000024001C0BBE0790F691E02D09940E9497
:1026D0007213A59F900DB49F900DA49F800D911D26
:1026E00011240895A29FB001B39FC001A39F700D54
:1026F000811D1124911DB29F700D811D1124911D0A
:062700000895F894FFCFDC
:102706004600620082007D004B00500028006E00EB
:102716004E00620073007F006666E6BF6666663F2F
:10272600666666BF6666E63F666606416666924010
:102736009A99193F85EB9140466F722028002C002C
:102746003A005368696674696E67204C6567205065
:102756006F736974696F6E00476F696E6720746F77
:10276600205374616E6461726420506F736974697A
:102776006F6E00496E20536574757000000000008E
:102786009209F70A24093E093009D9090D0A006E93
:0C279600616E00696E66006F76660000E0
:020000021000EC
:10FC000001C0F4C011248FEF90E19EBF8DBF84B777
:10FC1000882349F0982F9A70923029F081FF02C012
:10FC200097EF94BF14D185E08EBD82E08BB988E157
:10FC30008AB986E08093950080E189B98EE0F4D09E
:10FC4000BD9A84E040E35CEF34E020E25DBD4CBD52
:10FC500036BF06B602FEFDCF98B3922798BBA89593
:10FC60008150A1F7C0E0D0E0D8D0813469F4D5D07C
:10FC7000182FDED0123809F4AFC0113811F486E025
:10FC800001C083E0C6D0AFC0823411F484E103C068
:10FC9000853419F485E0D4D0A6C0853579F4BDD07B
:10FCA000C82FBBD0D0E0D82B8BB7D7FF02C0816064
:10FCB00001C08E7F8BBFCC0FDD1F94C0863581F4D1
:10FCC000ACD08D3449F4A9D01BB7A7D01170880FE0
:10FCD000182B1BBF81E001C083E0B2D080E0D2CFFF
:10FCE000843609F04DC099D0082F10E0102F00275E
:10FCF00094D0082B92D0B82E7801C12CDD24D39457
:10FD00008CD0F60181936F01F1E0EF1AF108C1F791
:10FD10008FD085E4B81212C06801D3947E0100E050
:10FD200011E0C016D10609F45EC0F80161918F019F
:10FD3000C7019BD0FFEFEF1AFF0AF3CF40E050E07E
:10FD400063E0CE0153D06E01E12CFF24F394F70160
:10FD50004081818150E0582B61E0C60147D0F2E03C
:10FD6000CF0ED11C0250110982E0E80EF11C0115E2
:10FD7000110569F740E050E065E0CE0137D033C0AF
:10FD8000843719F54AD0082F10E0102F002745D0EE
:10FD9000082B43D0F82E4CD0E5E4FE120DC07E01B6
:10FDA000C7015BD036D001501109FFEFEF1AFF0AEF
:10FDB00001151105A9F717C07E01F70187917F0191
:10FDC00028D001501109C9F70EC0853739F430D059
:10FDD0008EE11FD087E91DD082E054CF813511F428
:10FDE00088E022D025D080E114D03ECFFC010A016A
:10FDF00060936800E89511248091680080FDFCCF35
:10FE0000667031F0452B21F481E180936800E8951C
:10FE100008955D9BFECF8CB908955F9BFECF5C99E2
:10FE200001C0A8958CB1089598E191BD81BD089558
:10FE3000F4DF803219F088E0F7DFFFCF84E1E9CF0B
:10FE4000CF93C82FEADFC150E9F7CF91F1CF282E29
:10FE500080E0EADFE0E0FF270994E199FECF9FBB55
:10FE60008EBBE09A99278DB30895262FE199FECF96
:10FE70009FBB8EBB2DBB0FB6F894E29AE19A0FBEE2
:04FE8000019608954A
:02FFFE000206F9
:040000031000FC00ED
:00000001FF
